:107000006BC00000AAC000008EC000008CC0000051
:107010008AC0000088C0000086C0000084C0000054
:1070200082C0000080C000007EC000007CC0000064
:107030007AC0000078C0000076C0000074C0000074
:1070400072C0000070C000006EC000006CC0000084
:107050006AC0000068C0000066C0000064C0000094
:1070600062C0000060C00000EC2DFD2DB7B6B0FC82
:10707000FDCF27BFE895B7B6B0FCFDCF21E1B7B68D
:10708000B6FCF4CF08950902120001010080320914
:10709000040000000000000012011001FF000008C1
:1070A000C016DC050201010200010E035500530069
:1070B00042006100730070001C03770077007700C6
:1070C0002E00660069007300630068006C002E00EB
:1070D000640065000403090411241FBECFEFD8E04B
:1070E000DEBFCDBF24B7D8E0CEEF39913833399128
:1070F00009F03FEF30933E0120933D0111E0A0E005
:10710000B1E0E8E9F8E702C005900D92A630B107BA
:10711000D9F721E0A6E0B1E001C01D92AD33B2077E
:10712000E1F77DD1B7C36CCFA82FB92F80E090E0F5
:1071300041E050EA609530E009C02D918227979593
:10714000879510F084279527305EC8F36F5FA8F30A
:107150000895EADF8D939D930895CF93CFB7CF9392
:10716000DF93C3954B9BE9F74B9B0BC04B9B09C02F
:107170004B9B07C04B9B05C04B9B03C04B9B01C067
:1071800089C06F93C0912001DD27C95DDE4F2F9329
:1071900065E54B9B03C02F916F91E6CF0F931F9333
:1071A0004F9320E040E15F9309B10C7003FB27F996
:1071B0003F9350E03BE039C01C7040642F77012FB3
:1071C0005F5F1EC0406819B11C702F7752501FC0FE
:1071D000406409B12F770C70D1F15F5F00C023C00C
:1071E000406219B12F771C7091F15F5F00C025C01C
:1071F0000C701027515012F45D5F0000115027955C
:107200002C3F19B1C8F61C700127015027952C3F5F
:10721000C8F64227499309B10C7010274F731150DB
:1072200027952C3FA8F64695469519B11C7079F024
:107230000127015027952C3F98F66B5A60F3315087
:1072400009B1B0F600C011E01CBB002717C03B50CD
:107250003195C31BD04011E01CBB0881033CF9F001
:107260000B34E9F020911E011981110F1213EDCF9B
:10727000093651F10D3211F0013E39F70093250125
:107280003F915F914F911F910F912F916F91CCB3CF
:10729000C0FD67CFDF91CF91CFBFCF9118952091DF
:1072A0002501222369F310912301112339F534308C
:1072B0003AF13093230120931F01109120013BE00C
:1072C000311B309320011CC0009123010130B4F424
:1072D0000AE53091010134FD14C000930101C3E1BE
:1072E000D1E013C0052710E000C000000BB91AC0A0
:1072F000052710E0221F1DC010E021C04AE502C092
:1073000032ED432FC4E1D0E032E01AB11C605B9A49
:107310000BB11AB95CE020E865E320FF05270BB943
:10732000279517951C3FF0F66695B8F7B1F720FF43
:1073300005270BB9279517951C3FD0F6279517956C
:1073400017FF052700001C3F0BB9B0F629913A95AD
:1073500019F7037F10912401110FC651D0400BB9CA
:1073600011F010931E0111E01CBB08601AB1137FCD
:10737000402F437F54E05A95F1F70BB91AB94BB936
:107380007FCFDC0113963C911397932F1496EC91C9
:1073900014978E2F12962C911297203331F4E370AC
:1073A000F0E0EE5FFE4F80810895283529F4311119
:1073B0000EC0E1E0F0E006C0203599F431110CC0B8
:1073C000E0E0F0E089E08093570084910895383040
:1073D00021F5E3E0F0E0F6CF3830F9F4E2E0F0E058
:1073E000F1CF203221F4FC01EE0FFF1F06C028323E
:1073F00031F4FC01EE0FFF1F319684910895203A7D
:1074000009F432C2203C21F415966C9135D205C0A6
:107410002F3F19F481EF8093110180E008951AB88D
:1074200080E28BB981E085BF82E085BFE0E0F1E7D3
:10743000A89531978040E1F780913D01877F21F445
:1074400080913E01882381F04D9B0EC0F894539AA1
:107450001BB81DBA1092690081E085BF15BEE0918E
:107460000A01F0910B0109958EEF8093110114BE72
:107470000FB6F894A89580916000886180936000B1
:10748000109260000FBE8091690082608093690055
:10749000E89A539A8CE0E0E0F5E3A89531978040B4
:1074A000E1F75398789410912301135017FD46C1CA
:1074B00080912001CCE0D0E0C81BD109C95DDE4F2E
:1074C00080911F018D3209F0BAC0183009F034C123
:1074D00083EC809313018AE58093010110921201DD
:1074E0003881932F907689819923D1F146E051E03C
:1074F0005093220140932101833031F4CE0141DFCA
:107500008093090194E091C0853009F48DC08A30E0
:1075100009F48AC09CEF980F9630B0F44A815B81E1
:107520005093100140930F01893009F49BC19E8153
:1075300090930E012D81227020930D0180930C01F8
:1075400037FD6EC09FEF6CC0823021F48091110135
:107550008E7F03C08091110181608093110182C1EF
:107560009A8110921C01811106C010921D012CE11C
:1075700031E092E050C0853019F4909324013DC071
:107580008630A9F58B81813019F488E990E704C031
:10759000823041F486E890E79093220180932101A4
:1075A00092E121C08330F1F4911108C084ED90E79D
:1075B000909322018093210194E015C0913041F411
:1075C00088EB90E790932201809321019CE10BC00E
:1075D000923041F48AEA90E790932201809321014E
:1075E0009EE001C090E080E4809312011EC08830CC
:1075F00079F0893031F4909326012CE131E090E06C
:107600000AC091E08A3009F090E02CE131E003C03B
:1076100026E231E091E0309322012093210105C060
:1076200080E88093120108C091E08F81811104C02D
:107630008E81891708F4982F909300017DC0809166
:10764000120187FF79C080910E01811708F4182F6D
:10765000811B80930E01FF24F3948111F12C00E033
:10766000011708F066C020910C0180910F019091E4
:107670001001273080F06E012FEFC21AD20A688104
:107680009C012F5F3F4F3093100120930F01F4D0E6
:107690000F5FE601E5CF8115904708F04BC00E5F04
:1076A000F894E0910F01F09110012991399181E056
:1076B000090180935700E8951124789480910F0177
:1076C0009091100102969093100180930F018F7793
:1076D0009927892B59F0FF2009F4C2CF011708F42C
:1076E000BFCF80910D01882309F4BACFF894E091BF
:1076F0000F01F0911001329783E080935700E895D5
:10770000789407B600FCFDCFF894E0910F01F0915A
:107710001001329785E080935700E895789407B67A
:1077200000FCFDCFF89481E180935700E8957894B0
:1077300097CFF11010920001109223018091010166
:1077400084FF6CC0809100018F3F09F467C0C82F8F
:10775000893008F0C8E08C1B8093000190911301E0
:1077600088E8892780931301CC2309F44BC08091CA
:10777000120187FF29C080910E018C1708F4C82FD1
:107780008C1B80930E01D0910C0104E111E084E187
:1077900091E0202F281B2C17A8F5E0900F01F09006
:1077A0001001D73018F0C7015FD002C0F7018491F3
:1077B000F80180830F5F1F4FFFEFEF1AFF0AF0926F
:1077C0001001E0920F01E3CF2091210140912201AD
:1077D0003C2F320FA4E1B1E086FF08C0E22FF42F66
:1077E00084918D9331963E13FBCF08C0822F942F46
:1077F000FC0181918D93CF013E13FACFF0932201CA
:10780000E09321016C2F84E191E0A3DCCC5FCC30CC
:1078100019F08FEF80930001C093010184E199B1C9
:107820009C7031F48150D9F71092240110921E01FE
:1078300080911101803130F04D9B0FC0809111017A
:10784000805109C04D9909C080911101823028F002
:107850008091110182508093110180911101811159
:1078600022CEF4CD90E0E1CEF999FECF92BD81BD5C
:10787000F89A992780B50895262FF999FECF1FBA57
:1078800092BD81BD20BD0FB6F894FA9AF99A0FBE49
:0878900001960895F894FFCF62
:06789800FF5A1E950F00CF
:040000030000700089
:00000001FF
